:100000000C9472000C949A000C949A000C949A0030
:100010000C949A000C949A000C949A000C949A00F8
:100020000C949A000C949A000C949A000C949A00E8
:100030000C949A000C949A000C949A000C949A00D8
:100040000C9480080C949A000C949A000C949A00DA
:100050000C949A000C949A000C949A000C949A00B8
:100060000C94CA080C949A00005EBCE2613FDD83E8
:10007000C29C7E20A3FD1F41009D23BE46DB65F888
:100080008C11AF32CA57E974000000002400270029
:100090002A0000000000250028002B0000000008B6
:1000A000000201000003040700000000000000003F
:1000B00000000000230026002900040404040404B6
:1000C0000404020202020202030303030303010207
:1000D00004081020408001020408102001020408D6
:1000E0001020E90911241FBECFEFD8E0DEBFCDBF3D
:1000F00011E0A0E0B1E0E0E6F2E202C005900D926E
:10010000AE36B107D9F722E0AEE6B1E001C01D92EC
:10011000AF36B207E1F710E0C2E7D0E004C02197A4
:10012000FE010E94EC0EC137D107C9F70E94560AA2
:100130000C942E110C94000090E0FC01E456FF4F4B
:100140002491FC01E253FF4F3491FC01E654FF4F30
:10015000E491EE23C9F0222339F0233001F1A8F411
:10016000213019F1223029F1F0E0EE0FFF1FEE5699
:10017000FF4FA591B4918FB7F894EC91611126C00F
:1001800030953E233C938FBF08952730A9F0283047
:10019000C9F0243049F7809180008F7D03C08091A1
:1001A00080008F7780938000DFCF84B58F7784BD08
:1001B000DBCF84B58F7DFBCF8091B0008F778093AC
:1001C000B000D2CF8091B0008F7DF9CF3E2BDACF37
:1001D000CF93DF9390E0FC01E253FF4F24918654CC
:1001E0009F4FFC0184918823C9F090E0880F991FEC
:1001F000FC01E857FF4FA591B491FC01EE56FF4F6B
:10020000C591D49161110DC09FB7F8948C91209540
:1002100082238C938881282328839FBFDF91CF91ED
:100220000895623051F49FB7F8943C91822F8095E5
:1002300083238C93E8812E2BEFCF8FB7F894EC912A
:100240002E2B2C938FBFEACF3FB7F89480912902D1
:1002500090912A02A0912B02B0912C0226B5A89B66
:1002600005C02F3F19F00196A11DB11D3FBFBA2F48
:10027000A92F982F8827BC01CD01620F711D811D08
:10028000911D42E0660F771F881F991F4A95D1F78D
:1002900008958F929F92AF92BF92CF92DF92EF928A
:1002A000FF926B017C010E9424014B015C01C1148F
:1002B000D104E104F104B9F00E942401681979091C
:1002C0008A099B09683E73408105910580F321E00E
:1002D000C21AD108E108F10888EE880E83E0981E62
:1002E000A11CB11CE4CFFF90EF90DF90CF90BF90A6
:1002F000AF909F908F900895AF92BF92CF92DF9270
:10030000EF92FF920F931F93CF93DF936C017B01CA
:100310008B01040F151FEB015E01AE18BF08C0175B
:10032000D10759F06991D601ED91FC910190F081CE
:10033000E02DC6010995892B79F7C501DF91CF9191
:100340001F910F91FF90EF90DF90CF90BF90AF90F3
:100350000895DC0180E0615090F09D919827E92F8D
:10036000EF70F0E0E859FF4F2491E92FE295EF702C
:10037000F0E0E858FF4FE491822F8E27ECCF0895EC
:10038000DC012C911196ED91FC91F8948181822BE6
:1003900081839281322F30959323928387E090E07E
:1003A0000197F1F781818323818383E290E00197B4
:1003B000F1F790817894EFECF0E03197F1F7922328
:1003C00081E009F480E00895FC0190810180F281D0
:1003D000E02D292F209560FF14C0F894828182239C
:1003E00082838181892B8183A3E2B0E01197F1F7A9
:1003F0008281982B9283789487ED90E00197F1F7B2
:100400000895F8948281822382838181892B81835C
:10041000AFEFB0E01197F1F78281982B9283789437
:100420008FE090E0EBCFDF92EF92FF920F931F935C
:10043000CF93DF93EC01D62EE42E08E010E0FF24EA
:10044000F39461E08D2D8F2109F460E0CE010E94CC
:10045000E401FF0C01501109A1F7E11010C0F8945C
:10046000E981FA8191818881809589238183E9815D
:10047000FA81928188818095892382837894DF91A3
:10048000CF911F910F91FF90EF90DF900895EF9221
:10049000FF920F931F93CF93DF938C017B0140E07A
:1004A00065E50E941302E70188E0E80EF11C6991FE
:1004B00040E0C8010E941302CE15DF05C1F7DF91AD
:1004C000CF911F910F91FF90EF900895FC019081C3
:1004D0000180F281E02DF8948181292F20958223DB
:1004E000818378943DE743E050E0315029F1DA010F
:1004F0001197F1F780818923C1F3F89482818223D7
:1005000082838181892B81837894ABE7B7E011974F
:10051000F1F7F894818182238183A3E1B1E01197FF
:10052000F1F78081982381E009F080E07894E3E698
:10053000F6E03197F1F7089580E008956F927F9289
:100540008F929F92AF92BF92CF92DF92EF92FF92E3
:100550000F931F93CF93DF938C01EB018091530294
:10056000909154020E946602882309F43FC0B801AA
:1005700080915302909154020E94470240E06EEB3A
:1005800080915302909154020E9413027E016E01E9
:1005900089E0C80ED11C8E01A0905302B090540285
:1005A00088E0882E912C712C66246394C5010E94EA
:1005B000C00181117628660CE1E08E1A9108B1F72E
:1005C000F80171928F01CE16DF0631F78091530248
:1005D000909154020E946602813041F4F7018191AA
:1005E0007F01811105C0E017F107C1F790E008C055
:1005F00068E0CE010E94A90191E028852813F6CF7A
:10060000892FDF91CF911F910F91FF90EF90DF9095
:10061000CF90BF90AF909F908F907F906F900895F4
:10062000CF92DF92EF92FF92CF93DF93DC01179688
:10063000CC911797D0E06111DC2F18962C91189768
:1006400030E0220F331F20553F4F50E040E0F901CA
:1006500085919491FC01F080BA0190E080E0EF2D4B
:10066000EC23ED1310C04F5F5F4F1D96CD90DD90D2
:10067000ED90FC9050976C157D058E059F0538F325
:100680006FEF7FEFCB01DF91CF91FF90EF90DF9085
:10069000CF9008958F929F92AF92BF92CF92DF92A8
:1006A000EF92FF920F931F93CF93DF93CDB7DEB7F7
:1006B000C054D1400FB6F894DEBF0FBECDBF2FB7E8
:1006C000F89440912D0250912E0260912F0270916A
:1006D00030022FBFFC0101851285238534856A0114
:1006E0007B01C01AD10AE20AF30A97018601003D94
:1006F000174021053105B0F4FC018189C05CDE4F53
:100700000FB6F894DEBF0FBECDBFDF91CF911F9122
:100710000F91FF90EF90DF90CF90BF90AF909F90A0
:100720008F9008958C01FC014187528763877487FD
:100730001482138212821182108262E085810E94EB
:10074000E80061E070E080E090E00E94490161E033
:10075000F80185810E94E80060E0F80185810E942F
:100760009C00F80186818551823028F58BE291E169
:100770000197F1F762E0F80185810E94E800F80135
:10078000828990E08230910538F0880F991F880F98
:10079000991F05970197F1F7F89460E0C8010E944E
:1007A00010036F3F7F4F8F4F9F4F61F4F801118A05
:1007B000789480E0A3CF64E170E080E090E00E9454
:1007C0004901D8CF61E0C8010E9410036F3F7F4FFD
:1007D0008F4F9F4F59F3CE0101967C015E019FEB35
:1007E000A91A9EEFB90A670160E0C8010E941003D0
:1007F000F601608371838283938361E0C8010E9464
:100800001003F6016483758386839783F8E0CF0E27
:10081000D11CCA14DB0441F7789430E020E0F701E2
:1008200080809180A280B3804481558166817781E8
:10083000FFEF8F169F06AF06BF0631F04F3F8FEFD9
:1008400058076807780719F4F801118AB2CFF9013F
:1008500083E0F595E7958A95E1F7E00FF11F808138
:10086000880F84169506A606B706F0F080832F5FE2
:100870003F4FF8E0EF0EF11C2832310581F6F80108
:10088000448120818181280F3327331F8281280FE3
:10089000311D8381820F932F911D992748171906C7
:1008A00099F681E0818B2ACF8160E0CF0895209175
:1008B000B301260F3327331F21323105ECF4209189
:1008C000FE01FC0190E080E0243069F082E00895B0
:1008D000A091B3012191AC014F565E4FA40FB52FEB
:1008E000B11D2C930196861798F38091B301680F80
:1008F0006093B30180E0089581E008951092FE01B5
:1009000081E08093FD011092D80161E082E10E94B4
:100910009C0061E083E10E949C00E9EBF0E08081B3
:100920008E7F808380818D7F808388E48093B80070
:1009300085E48093BC000895CF93DF9391E090937A
:1009400090018823B9F0C091B800D091BA0080918D
:10095000BC008A7B8093BC0060E082E10E949C0026
:1009600060E083E10E949C000E947E04D093BA0064
:10097000C093B800DF91CF91089508950895089528
:10098000E0918F0180918E01E81730F4F0E0E25998
:10099000FE4F808190E008958FEF9FEF0895909132
:1009A0008F0180918E012FEF3FEF981748F4E92FC8
:1009B000F0E0E259FE4F208130E09F5F90938F017D
:1009C000C901089580918E0190918F01891B990B27
:1009D0000895CF92DF92EF92FF920F931F93CF93E0
:1009E000DF937C01CB018A0120910402222389F04C
:1009F000EB016B01C40ED51ECC15DD0569F06991C4
:100A0000D701ED91FC910190F081E02DC70109958E
:100A1000F3CF642F0E945704C801DF91CF911F913B
:100A20000F91FF90EF90DF90CF900895CF93DF93D9
:100A30001F92CDB7DEB76983209104022223F9F01B
:100A400020912702203258F021E030E0FC0133836E
:100A5000228390E080E00F90DF91CF910895809104
:100A60000502E82FF0E0EA5FFD4F998190838F5FE8
:100A7000809305028093270281E090E0ECCF61E053
:100A8000CE0101960E945704F7CFCF92DF92EF92EA
:100A9000FF920F931F93CF93DF93FC01C48121E05A
:100AA00020930402C093260210920502109227029E
:100AB0008485682B81E392E00E941605D09127027D
:100AC000D13208F092C00E9424016B017C01809118
:100AD000FE01811165C082E08093FE0181E0809378
:100AE000FD018FEF8093FC011092FB01D093FA017E
:100AF000A6E0B2E0EAEDF1E080E0D81385C0109204
:100B0000D9018091D901CC0FC82BC093D901809114
:100B1000D801813009F07CC01092D8010E942401D4
:100B20006B017C018091D9018093BB008091000210
:100B300090910102A0910202B0910302892B8A2BAD
:100B40008B2B99F00E942401009100021091010268
:100B500020910202309103026C197D098E099F09D0
:100B60000617170728073907E0F18091BC0083FDBD
:100B7000D9CF85EC8093BC000E9424016B017C01DD
:100B80008091FE01823009F445C08091FC018F3FC5
:100B900061F18091FC01803241F18091FC0125C01E
:100BA0008091000290910102A0910202B091030293
:100BB000892B8A2B8B2B09F48ACF0E942401009168
:100BC00000021091010220910202309103026C197F
:100BD0007D098E099F09061717072807390708F0AE
:100BE00076CF8091FF010E949C0410920502109222
:100BF000270210920402DF91CF911F910F91FF9075
:100C0000EF90DF90CF9008959D9191938F5F75CF76
:100C100085EEB0CF8091000290910102A091020276
:100C2000B0910302892B8A2B8B2B09F4A9CF0E9448
:100C300024010091000210910102209102023091E2
:100C400003026C197D098E099F09061717072807EB
:100C5000390708F095CFC5CF90E080E00895FC01FA
:100C600001900020E9F73197AF01481B590BBC01F7
:100C70008DE392E00C947C018F929F92AF92BF9291
:100C80000F931F93CF93DF93CDB7DEB7A1970FB626
:100C9000F894DEBF0FBECDBF19A2423008F44AE07F
:100CA0008E010F5D1F4F842E912CB12CA12CA5011C
:100CB00094010E94B60EE62FB901CA01EA30F4F49D
:100CC000E05DD801EE938D01232B242B252B79F7A2
:100CD00090E080E0109719F0CD010E942F06A196B8
:100CE0000FB6F894DEBF0FBECDBFDF91CF911F913D
:100CF0000F91BF90AF909F908F900895E95CE1CFE6
:100D0000BF92CF92DF92EF92FF920F931F93CF93F8
:100D1000DF93EC01B62EC72E8D85811105C0CE0163
:100D20000E94660281110EC01B861D861C8680E013
:100D3000DF91CF911F910F91FF90EF90DF90CF90B7
:100D4000BF90089540E060EFCE010E94130201E0E1
:100D5000E12CD12C11E0CE010E94C001F82ECE0171
:100D60000E94C00191E0F91218C0813099F5113448
:100D7000D8F2DB86D11002C081E08D878B81882379
:100D800099F22396EB2DFC2DCF0108962991219302
:100D9000E817F907D9F781E0CBCFEE2DF0E0F81294
:100DA0000FC08B851817A0F4DE01AE0FBF1F13967E
:100DB0008C91802379F4F12C193008F41C87D12E02
:100DC000EC0FFD1F8381902F9095892383830AC0A8
:100DD0008113F1CFFE01EE0DF11D8381802B838302
:100DE000FF24F3946F2DCE010E94E4011F5F000FDA
:100DF00011F4E39401E087E08E1508F0ACCFB7CF93
:100E00000F931F93CF938C01C62F0E9445056C2F23
:100E10006460C8010E9445056C2F6B7FC8010E9469
:100E2000450583EC90E00197F1F7CF911F910F9169
:100E300008950F931F93CF93DF938C01D62FC42F68
:100E4000607F642B0E94000780E1D89FB0011124CD
:100E50006C2BC801DF91CF911F910F910C9400076B
:100E600041E00E94190781E090E008954F925F925F
:100E70006F927F928F929F92AF92BF92CF92DF92AA
:100E8000EF92FF920F931F93CF936B017C01742E0F
:100E9000AC019B010E942911882399F08CE291E01A
:100EA000CF911F910F91FF90EF90DF90CF90BF9067
:100EB000AF909F908F907F906F905F904F900C9429
:100EC0002F0646015701E894B7F82FEF3FEF4FE7A1
:100ED0005FE7C501B4010E94291181110DC02FEFF8
:100EE0003FEF4FE75FE7C501B4010E945F0F18169F
:100EF0001CF480E391E0D4CF2FEF3FEF4FE75FE4A6
:100F0000C701B6010E94B71018161CF484E391E0E3
:100F1000C7CF2FEF3FEF4FE75FECC701B6010E944D
:100F20005F0F87FDF3CF20E030E0A901C701B601D4
:100F30000E945F0F10E000E087FF0CC041E06DE20F
:100F40008DE392E00E941907F7FAF094F7F8F09415
:100F500001E010E0C0E060E070E080E09FE37C161C
:100F600041F020E030E040E251E40E94640FCF5FA6
:100F7000F6CFA70196010E94F30E4B015C010E947F
:100F8000D60F2B013C014AE00E943C06080F191FB6
:100F9000CC23C9F1C301B2010E9405109B01AC0131
:100FA000C501B4010E94F20E4B015C0141E06EE20A
:100FB0008DE392E00E9419070F5F1F4FC15018F197
:100FC00020E030E040E251E4C501B4010E94BC10D1
:100FD0002B013C010E94D60F4B01B12CA12C4AE001
:100FE000C501B4010E943C06080F191FC501B401D8
:100FF0000E9405109B01AC01C301B2010E94F20ED8
:101000004B015C01DBCFC801CF911F910F91FF9085
:10101000EF90DF90CF90BF90AF909F908F907F9098
:101020006F905F904F900895CF93DF93CDB7DEB769
:1010300028970FB6F894DEBF0FBECDBF98E0E0E072
:10104000F1E0DE01119601900D929A95E1F79091F1
:101050004502961710F46FEF690F262F30E0220F2C
:10106000331F41E050E04C0F5D1F240F351FF90185
:101070006081680F606840E08DE392E028960FB6CB
:10108000F894DEBF0FBECDBFDF91CF910C9419074E
:1010900085ED8093BC008091000290910102A091A7
:1010A0000202B09103020796A11DB11D23E0B6957F
:1010B000A795979587952A95D1F72091BC0024FD97
:1010C00003C01092FE010895409100025091010268
:1010D0006091020270910302452B462B472B69F366
:1010E0000097A105B10541F02AE22A95F1F700C069
:1010F0000197A109B109E1CF8091FF010C949C04F3
:101100001F920F920FB60F9211242F933F938F933C
:101110009F93AF93BF9380912D0290912E02A09147
:101120002F02B09130023091280223E0230F2D3797
:1011300058F50196A11DB11D2093280280932D0220
:1011400090932E02A0932F02B09330028091290237
:1011500090912A02A0912B02B0912C020196A11D20
:10116000B11D8093290290932A02A0932B02B09381
:101170002C02BF91AF919F918F913F912F910F9032
:101180000FBE0F901F90189526E8230F0296A11D01
:10119000B11DD2CF1F920F920FB60F9211242F9331
:1011A0003F934F935F936F937F938F939F93AF93EF
:1011B000BF93EF93FF938091B900887F803609F445
:1011C0004AC0F0F5883209F4A7C018F5803109F457
:1011D0009BC0B8F4882309F4F9C0883009F494C09E
:1011E000FF91EF91BF91AF919F918F917F916F91FF
:1011F0005F914F913F912F910F900FBE0F901F90D5
:101200001895883109F488C0803251F78093FC0129
:1012100014C0803409F49DC040F48033B9F388339E
:10122000F9F68093FC0185ECB0C0803509F485C0E7
:10123000883509F496C0883499F60E944808D0CFC2
:10124000883909F48CC038F5883729F050F488368D
:1012500011F0803729F683E08093FE011092D701C8
:1012600057C0883809F47BC0803919F0803809F0FC
:10127000B7CF8091D701803208F071C0E091D701DB
:1012800081E08E0F8093D7018091BB00F0E0E9549C
:10129000FE4F80833DC0803B39F0E0F4803A09F492
:1012A00079C0883A09F09CCF84E08093FE011092C7
:1012B000B4011092B301E091B101F091B20109952E
:1012C0008091B30181110FC081E08093B30110922E
:1012D000910109C0803C09F4A6CF883C09F4A3CF52
:1012E000883B09F07DCFE091B40181E08E0F8093BF
:1012F000B401F0E0EF56FE4F80818093BB009091E7
:10130000B4018091B30129C08091D9018093BB00C1
:1013100085EC8093BC0064CF9091FB018091FA0131
:10132000981758F5E091FB0181E08E0F8093FB0147
:10133000F0E0E652FE4F8081E9CFE091FB0181E0D1
:101340008E0F8093FB018091BB00F0E0E652FE4FD0
:1013500080839091FB018091FA019817C8F285E88B
:10136000D8CFE091FB0181E08E0F8093FB0180914B
:10137000BB00F0E0E652FE4F80838091FD018111B9
:101380005CCF81E08093D80184EA8093BC00109206
:10139000FE0126CF85EC8093BC001092FE01809167
:1013A000D701803230F4E091D701F0E0E954FE4FEC
:1013B00010826091D70170E0E091B501F091B60123
:1013C00087EB91E009951092D7010ACF1092FC01AA
:1013D00034CFE1E3F2E01382128288EE93E0A0E0E2
:1013E000B0E084839583A683B78382E191E0918303
:1013F000808360E086E00E94E800E4EDF0E0E491A4
:10140000A1E6B2E0EC93E0ECF0E0E491F0E0EE0F66
:10141000FF1FE055FF4F8591949112969C938E93F8
:1014200011971B961C921B971D961C921D971C963C
:101430001C921C971A961C921A9719961C9219972F
:1014400018961C92189717961C92179716961C922E
:10145000169715961C92159714961C92149713962E
:101460001C921397EAE4F2E017821086108289E05A
:10147000838381E08483858386831182168A158A1B
:101480008FEF838B148AB287A187EDE3F2E013829A
:10149000128284E291E091838083118687E28483C3
:1014A00080E1828784E0838714860895CF93DF9359
:1014B000CDB7DEB7A8970FB6F894DEBF0FBECDBF8D
:1014C000789484B5826084BD84B5816084BD85B51F
:1014D000826085BD85B5816085BD80916E0081602B
:1014E00080936E00109281008091810082608093D1
:1014F00081008091810081608093810080918000D3
:101500008160809380008091B10084608093B100FD
:101510008091B00081608093B00080917A008460F7
:1015200080937A0080917A00826080937A00809123
:101530007A00816080937A0080917A00806880933D
:101540007A001092C1001092C50083E38093C4001A
:101550008091C20084608093C2008091C20082604A
:101560008093C2008091C10088608093C100809107
:101570007C00806480937C0080917A0084608093FA
:101580007A0080917A00826080937A0080917A005C
:10159000816080937A0080917A00806880937A00DD
:1015A00087E08E838BE08F83E5EDF0E0E491E887C0
:1015B000E1ECF0E0E491E98780E89EE3A0E0B0E0B0
:1015C0008E879F87A88BB98B62E087E00E94E80036
:1015D0002FB7F89480912D0290912E02A0912F02A6
:1015E000B09130022FBF805D9740A109B1098A8771
:1015F0009B87AC87BD8787E38B8B13E001E0E0918D
:101600005302F091540213861586148612861186B1
:10161000108617821682158214821382109251024C
:101620001092520262E370E080E090E00E94490173
:10163000BE01635E7F4F80915302909154020E94DD
:101640008006882309F47AC067E0CE014D960E9497
:10165000A9019CA18913ECCF809151028F5F8093E7
:1016600051028D8D883231F008F04EC0803111F07A
:101670008232F1F6809152028F5F80935202809104
:101680004A02811128C080915302909154020E9415
:101690006602BE01635E7F4F8091530290915402B7
:1016A0000E94470240E064EB809153029091540203
:1016B0000E94130280915302909154020E94C00133
:1016C000F82E80915302909154020E946602F1100C
:1016D00002C000934A028D8D803109F1BE016C5E1B
:1016E0007F4FCE014D960E949E02882359F0888D2F
:1016F0009D8D9B3311F487FD12C08F3391F058F408
:101700008F31C1F080E00EC08B3309F4B3CF823447
:1017100009F08ECFAFCF8F3579F08F3799F78CE006
:1017200001C08AE090914D02981708F081CF809314
:101730004D027ECF89E0F6CF8BE0F4CF809151024D
:10174000811103C0115009F05ACF10928F011092ED
:101750008E0110920502109227020E947E048DEBEA
:1017600094E09093B2018093B1018EEB94E090935A
:10177000B6018093B5010E947E04109242028091CE
:101780004802823018F098E090934202809345021C
:1017900062E370E080E090E00E94490160914902BC
:1017A0008DE392E00E94450568EE73E080E090E0F2
:1017B0000E94490160E38DE392E00E9400070BE480
:1017C00016E4C8010197F1F760E38DE392E00E940F
:1017D0000007C8010197F1F760E38DE392E00E94F2
:1017E000000783E592E00197F1F760E28DE392E074
:1017F0000E94000760914202606240E08DE392E047
:101800000E94190784E08093430240E06CE08DE37E
:1018100092E00E94190740E061E08DE392E00E94AF
:1018200019078BE39FE10197F1F780914602882326
:1018300021F060E080E00E94140882E0809344027E
:1018400040E066E08DE392E00E94190740E062E02C
:101850008DE392E00E9419078BE39FE10197F1F776
:1018600088E08093490260E08DE392E00E944505A4
:1018700060E080E00E94140888E391E00E942F0657
:1018800061E080E00E94140887E491E00E942F0646
:1018900062E080E00E94140883E591E00E942F0638
:1018A00063E080E00E9414088EE591E00E942F061C
:1018B00080917A00806480937A0080917A0086FD1E
:1018C000FCCF609178007091790090E080E00E94F8
:1018D000051020E030E040EA5BE30E94BC1020E00D
:1018E00030E048EC52E40E94BC106DA37EA38FA3AD
:1018F00098A7CE0101960E944A03882339F08F8170
:101900008C3009F45FC048F48B30F1F0C12CD12C3D
:1019100010ECE12E1FE7F12E3FC085518230B0F769
:101920001B81612F70E0762F662766277F778C8179
:10193000682B90E080E00E9405102DEC3CEC4CEC14
:101940005DE30E94BC1058C06B8170E090E080E0C5
:101950000E9405106B017C011C8117FF0AC0AC01BD
:101960009B0160E070E080E89FEB0E94F20E6B014B
:101970007C011F70612F70E090E080E00E940710F2
:101980002DEC3CEC4CEC5DE30E94BC10A7019601F1
:101990000E94F30E6B017C01CE0101960E944A0366
:1019A000882349F08F818B3030F08D3070F1855174
:1019B000823008F4CBC0812C912CB0ECAB2EBFE769
:1019C000BB2E3FC01B81612F70E090E080E00E9441
:1019D00005106B017C016C816F7070E090E080E01D
:1019E0000E9407102DEC3CEC4CEC5DE30E94BC1017
:1019F000A70196010E94F30E6B017C0117FFCCCF6B
:101A0000F7FAF094F7F8F094C7CF6A8170E090E0AD
:101A100080E00E9407102DEC3CEC4CEC5DE30E9452
:101A2000BC104B015C01698170E090E080E00E9495
:101A300007109B01AC01C501B4010E94F30E4B01DC
:101A40005C0180915302909154020E94660240E032
:101A50006CEC80915302909154020E9413024091C9
:101A60004A0264E480915302909154020E9413024E
:101A70008FB7F89440902D0250902E0260902F0264
:101A8000709030028FBF80914E02882329F180919F
:101A90004F02882309F46AC080914A02811166C00E
:101AA00080915302909154020E94C0018130A1F0B4
:101AB0002FB7F89480912D0290912E02A0912F02C1
:101AC000B09130022FBF84199509A609B7098E3E3F
:101AD0009240A105B10520F38091510281116FC0A0
:101AE000412C512CFEEF6F2EF2EC7F2E60E08EE049
:101AF0000E94140843E06DA17EA18FA198A50E94C9
:101B0000360761E08EE00E94140843E0C701B60189
:101B10000E94360762E08EE00E94140843E0C5018F
:101B2000B4010E94360763E08EE00E94140843E08F
:101B3000C301B2010E9436078FEF93EC29E0815078
:101B400090402040E1F700C00000B2CE69817A8168
:101B500076276727762790E080E00E9405102DEC1D
:101B60003CEC4CEC5DE30E94BC1069CFE0914D026F
:101B7000E9508EEE92E0E33038F4F0E0EE0FFF1F14
:101B8000E85FFE4F808191812C01712C612C809146
:101B90004B02882329F060E080914C020E949C0057
:101BA000C301B2010E94490180914B02882309F4CC
:101BB00093CF61E080914C020E949C008DCFE09118
:101BC0005302F091540213861586148612861186EC
:101BD000108617821682158214821382BE01635EFC
:101BE0007F4F80915302909154020E948006882377
:101BF00009F476CF67E0CE014D960E94A9019CA121
:101C000089136ECFBE016C5E7F4FCE014D960E9450
:101C10009E02882309F464CF9D8900E010E09801BA
:101C200097FF04C000E010E028EF3FEF4D8D4C8897
:101C30004B3309F040C0888D87FF3DC040FC50CF3A
:101C4000512C712C612C73E0440C551C661C771CC4
:101C50007A95D1F740EE442247E054226624772457
:101C6000892F90E0B0E0A0E0EBE0880F991FAA1F59
:101C7000BB1FEA95D1F784299529A629B7292C01FC
:101C80003D01402A512A622A732A51E8451654EE32
:101C900055065FEF650675060CF422CFC301B2014D
:101CA0000E94071020E030E040E05CE30E94BC109E
:101CB0002B013C011BCF892F90E0982F8827990F8B
:101CC000990F990F58E0459E20011124482A592A5E
:101CD000052C000C66087708402A512A622A732ACC
:101CE000403199F66B8D662381F270E08A8DAB01ED
:101CF000481B5109CA019695982F88279795879573
:101D00000E94A20ECB01770FAA0BBB0B53E0440C31
:101D1000551C661C771C5A95D1F750E8452257E0B0
:101D20006522772440E2441A510861087108840D45
:101D3000951DA61DB71D28013901482A592A6A2A6E
:101D40007B2AA3CF97FB072E16F4009407D077FDCC
:101D500009D00E94D80E07FC05D03EF490958195DD
:101D60009F4F0895709561957F4F0895A1E21A2EB7
:101D7000AA1BBB1BFD010DC0AA1FBB1FEE1FFF1F2F
:101D8000A217B307E407F50720F0A21BB30BE40B7F
:101D9000F50B661F771F881F991F1A9469F76095C6
:101DA0007095809590959B01AC01BD01CF01089580
:101DB000AA1BBB1B51E107C0AA1FBB1FA617B70771
:101DC00010F0A61BB70B881F991F5A95A9F780958D
:101DD0009095BC01CD010895EE0FFF1F0590F49181
:101DE000E02D09945058BB27AA270E940A0F0C9493
:101DF0007D100E946F1038F00E94761020F039F4A8
:101E00009F3F19F426F40C946C100EF4E095E7FB58
:101E10000C946610E92F0E948E1058F3BA176207CF
:101E200073078407950720F079F4A6F50C94B01099
:101E30000EF4E0950B2EBA2FA02D0B01B9019001E5
:101E40000C01CA01A0011124FF27591B99F0593F29
:101E500050F4503E68F11A16F040A22F232F342F71
:101E60004427585FF3CF469537952795A795F040BF
:101E70005395C9F77EF41F16BA0B620B730B840BD4
:101E8000BAF09150A1F0FF0FBB1F661F771F881F8C
:101E9000C2F70EC0BA0F621F731F841F48F48795E4
:101EA00077956795B795F7959E3F08F0B0CF9395D6
:101EB000880F08F09927EE0F9795879508950E944F
:101EC000421008F481E008950E94780F0C947D1070
:101ED0000E94761058F00E946F1040F029F45F3F86
:101EE00029F00C94661051110C94B1100C946C10E4
:101EF0000E948E1068F39923B1F3552391F3951B3B
:101F0000550BBB27AA2762177307840738F09F5F1A
:101F10005F4F220F331F441FAA1FA9F335D00E2E87
:101F20003AF0E0E832D091505040E695001CCAF7F4
:101F30002BD0FE2F29D0660F771F881FBB1F2617B7
:101F400037074807AB07B0E809F0BB0B802DBF018E
:101F5000FF2793585F4F3AF09E3F510578F00C945D
:101F600066100C94B1105F3FE4F3983ED4F386956D
:101F700077956795B795F7959F5FC9F7880F911D7E
:101F80009695879597F90895E1E0660F771F881F6A
:101F9000BB1F621773078407BA0720F0621B730B1D
:101FA000840BBA0BEE1F88F7E09508950E949610F7
:101FB00088F09F5798F0B92F9927B751B0F0E1F00A
:101FC000660F771F881F991F1AF0BA95C9F714C0BA
:101FD000B13091F00E94B010B1E008950C94B010AF
:101FE000672F782F8827B85F39F0B93FCCF38695F3
:101FF00077956795B395D9F73EF490958095709550
:1020000061957F4F8F4F9F4F0895E89409C097FBCC
:102010003EF490958095709561957F4F8F4F9F4FBF
:102020009923A9F0F92F96E9BB279395F695879503
:1020300077956795B795F111F8CFFAF4BB0F11F4C6
:1020400060FF1BC06F5F7F4F8F4F9F4F16C088236D
:1020500011F096E911C0772321F09EE8872F762FA3
:1020600005C0662371F096E8862F70E060E02AF0E4
:102070009A95660F771F881FDAF7880F96958795D0
:1020800097F90895990F0008550FAA0BE0E8FEEFA5
:1020900016161706E807F907C0F012161306E4072C
:1020A000F50798F0621B730B840B950B39F40A2625
:1020B00061F0232B242B252B21F408950A2609F403
:1020C000A140A6958FEF811D811D089597F99F6707
:1020D00080E870E060E008959FEF80EC08950024B0
:1020E0000A941616170618060906089500240A947D
:1020F00012161306140605060895092E0394000C03
:1021000011F4882352F0BB0F40F4BF2B11F460FF91
:1021100004C06F5F7F4F8F4F9F4F089557FD9058BA
:10212000440F551F59F05F3F71F04795880F97FB9B
:10213000991F61F09F3F79F0879508951216130655
:102140001406551FF2CF4695F1DF08C01616170684
:102150001806991FF1CF86957105610508940895B9
:10216000E894BB2766277727CB0197F908950E944B
:10217000421008F48FEF08950E94CF100C947D1048
:102180000E946F1038F00E94761020F0952311F015
:102190000C9466100C946C1011240C94B1100E94D5
:1021A0008E1070F3959FC1F3950F50E0551F629FFD
:1021B000F001729FBB27F00DB11D639FAA27F00DA0
:1021C000B11DAA1F649F6627B00DA11D661F829FC7
:1021D0002227B00DA11D621F739FB00DA11D621FAC
:1021E000839FA00D611D221F749F3327A00D611DC9
:1021F000231F849F600D211D822F762F6A2F1124AB
:102200009F5750409AF0F1F088234AF0EE0FFF1FDD
:10221000BB1F661F771F881F91505040A9F79E3F34
:10222000510580F00C9466100C94B1105F3FE4F3FC
:10223000983ED4F3869577956795B795F795E7958A
:102240009F5FC1F7FE2B880F911D9695879597F993
:1022500008950E944210880B990B0895F894FFCFBF
:1022600000004000140054005E00BC007701000034
:1022700000001605E9042C06BF04E204CF04C004E4
:102280000000000030077C012C0656046E616E00D1
:10229000696E66006F76660054656D702E20616E03
:1022A000616C6F673A200054656D702E204448546D
:1022B0003A200048756D2E204448543A2000546559
:0E22C0006D702E206469676974616C3A2000AD
:00000001FF
