:100000000C9458000C9480000C9480000C94800098
:100010000C9480000C9480000C9480000C94800060
:100020000C9480000C9480000C9480000C94800050
:100030000C9480000C9480000C9480000C94800040
:100040000C94CB030C9480000C9480000C948000E2
:100050000C9480000C9480000C9480000C94800020
:100060000C9415040C94800000000000250028006A
:100070002B00040404040404040402020202020229
:10008000030303030303010204081020408001025C
:1000900004081020010204081020000000080002DB
:1000A0000100000304070000000000000000340508
:1000B00011241FBECFEFD8E0DEBFCDBF11E0A0E01E
:1000C000B1E0ECE9FCE002C005900D92A034B1076C
:1000D000D9F722E0A0E4B1E001C01D92AC31B20733
:1000E000E1F710E0C8E5D0E004C02197FE010E94CE
:1000F0004606C735D107C9F70E9455050C944C0632
:100100000C94000090E0FC01E656FF4F2491FC01A6
:10011000EA57FF4F3491FC01EE58FF4FE491EE2374
:10012000C9F0222339F0233001F1A8F4213019F16C
:10013000223029F1F0E0EE0FFF1FE859FF4FA591A3
:10014000B4918FB7F894EC91611126C030953E239D
:100150003C938FBF08952730A9F02830C9F0243090
:1001600049F7809180008F7D03C0809180008F7758
:1001700080938000DFCF84B58F7784BDDBCF84B5DB
:100180008F7DFBCF8091B0008F778093B000D2CF6E
:100190008091B0008F7DF9CF3E2BDACF3FB7F89436
:1001A0008091FF0190910002A0910102B0910202A2
:1001B00026B5A89B05C02F3F19F00196A11DB11DC2
:1001C0003FBFBA2FA92F982F8827BC01CD01620FFE
:1001D000711D811D911D42E0660F771F881F991FB9
:1001E0004A95D1F708958F929F92AF92BF92CF9286
:1001F000DF92EF92FF924B015C010E94CE006B01F7
:100200007C010E94CE006C197D098E099F09683E11
:10021000734081059105A8F321E0821A9108A10895
:10022000B10888EEC80E83E0D81EE11CF11C8114D1
:100230009104A104B10429F7FF90EF90DF90CF90D3
:10024000BF90AF909F908F900895AF92BF92CF9242
:10025000DF92EF92FF920F931F93CF93DF936C0186
:100260007B018B01040F151FEB015E01AE18BF0867
:10027000C017D10759F06991D601ED91FC91019019
:10028000F081E02DC6010995892B79F7C501DF9131
:10029000CF911F910F91FF90EF90DF90CF90BF9083
:1002A000AF900895089520918501260F3327331FBD
:1002B00021323105ECF42091D001FC0190E080E086
:1002C000243069F082E00895A09185012191AC016C
:1002D0004D595E4FA40FB52FB11D2C930196861773
:1002E00098F380918501680F6093850180E00895FF
:1002F00081E008951092D00181E08093CF011092A7
:10030000AA0161E082E10E94820061E083E10E9433
:100310008200E9EBF0E080818E7F808380818D7F99
:10032000808388E48093B80085E48093BC000895BE
:10033000CF93DF9391E0909362018823B9F0C0914D
:10034000B800D091BA008091BC008A7B8093BC0039
:1003500060E082E10E94820060E083E10E9482000E
:100360000E947A01D093BA00C093B800DF91CF9178
:100370000895089508950895E091610180916001C4
:10038000E81730F4F0E0E05CFE4F808190E00895E3
:100390008FEF9FEF089590916101809160012FEFA1
:1003A0003FEF981748F4E92FF0E0E05CFE4F208122
:1003B00030E09F5F90936101C901089580916001D1
:1003C00090916101891B990B0895CF92DF92EF9272
:1003D000FF920F931F93CF93DF937C01CB018A0190
:1003E0002091D601222389F0EB016B01C40ED51EAA
:1003F000CC15DD0569F06991D701ED91FC91019073
:10040000F081E02DC7010995F3CF642F0E945301BD
:10041000C801DF91CF911F910F91FF90EF90DF9076
:10042000CF900895CF93DF931F92CDB7DEB7698346
:100430002091D6012223F9F02091F901203258F0C1
:1004400021E030E0FC013383228390E080E00F90D4
:10045000DF91CF9108958091D701E82FF0E0E85225
:10046000FE4F998190838F5F8093D7018093F9012C
:1004700081E090E0ECCF61E0CE0101960E94530153
:10048000F7CFCF92DF92EF92FF920F931F93CF930C
:10049000DF93FC01C48121E02093D601C093F801D1
:1004A0001092D7011092F9018485682B83E092E0C5
:1004B0000E941202D091F901D13208F092C00E943C
:1004C000CE006B017C018091D001811165C082E07A
:1004D0008093D00181E08093CF018FEF8093CE0194
:1004E0001092CD01D093CC01A8EDB1E0ECEAF1E09F
:1004F00080E0D81385C01092AB018091AB01CC0F86
:10050000C82BC093AB018091AA01813009F07CC057
:100510001092AA010E94CE006B017C018091AB0178
:100520008093BB008091D2019091D301A091D4011E
:10053000B091D501892B8A2B8B2B99F00E94CE008C
:100540000091D2011091D3012091D4013091D501B5
:100550006C197D098E099F090617170728073907A7
:10056000E0F18091BC0083FDD9CF85EC8093BC0085
:100570000E94CE006B017C018091D001823009F491
:1005800045C08091CE018F3F61F18091CE018032D4
:1005900041F18091CE0125C08091D2019091D3018B
:1005A000A091D401B091D501892B8A2B8B2B09F412
:1005B0008ACF0E94CE000091D2011091D3012091E8
:1005C000D4013091D5016C197D098E099F09061758
:1005D00017072807390708F076CF8091D1010E94CC
:1005E00098011092D7011092F9011092D601DF9173
:1005F000CF911F910F91FF90EF90DF90CF900895D2
:100600009D9191938F5F75CF85EEB0CF8091D20190
:100610009091D301A091D401B091D501892B8A2B5F
:100620008B2B09F4A9CF0E94CE000091D20110912A
:10063000D3012091D4013091D5016C197D098E0927
:100640009F09061717072807390708F095CFC5CF68
:1006500090E080E008950F931F93CF938C01C62FF5
:100660000E9441026C2F6460C8010E9441026C2FFD
:100670006B7FC8010E94410283EC90E00197F1F783
:10068000CF911F910F9108950F931F93CF93DF93F5
:100690008C01D62FC42F607F642B0E942B0380E136
:1006A000D89FB00111246C2BC801DF91CF911F910D
:1006B0000F910C942B03CF93DF93CDB7DEB7289720
:1006C0000FB6F894DEBF0FBECDBF98E0E0E0F1E0DA
:1006D000DE01119601900D929A95E1F79091170223
:1006E000981710F48FEF890F90E0880F991F21E081
:1006F00030E02C0F3D1F820F931FFC01608160686A
:1007000040E08FE092E028960FB6F894DEBF0FBE6F
:10071000CDBFDF91CF910C94440341E00E9444038C
:1007200081E090E0089585ED8093BC008091D20136
:100730009091D301A091D401B091D5010796A11D4C
:10074000B11D23E0B695A795979587952A95D1F782
:100750002091BC0024FD03C01092D0010895409167
:10076000D2015091D3016091D4017091D501452BF4
:10077000462B472B69F30097A105B10541F02AE20A
:100780002A95F1F700C00197A109B109E1CF809145
:10079000D1010C9498011F920F920FB60F92112461
:1007A0002F933F938F939F93AF93BF938091FB01C0
:1007B0009091FC01A091FD01B091FE013091FA01F0
:1007C00023E0230F2D3758F50196A11DB11D20936D
:1007D000FA018093FB019093FC01A093FD01B0937B
:1007E000FE018091FF0190910002A0910102B09161
:1007F00002020196A11DB11D8093FF01909300029A
:10080000A0930102B0930202BF91AF919F918F918B
:100810003F912F910F900FBE0F901F90189526E8D3
:10082000230F0296A11DB11DD2CF1F920F920FB6BA
:100830000F9211242F933F934F935F936F937F9366
:100840008F939F93AF93BF93EF93FF938091B900E2
:10085000887F803609F44AC0F0F5883209F4A7C0D1
:1008600018F5803109F49BC0B8F4882309F4F9C065
:10087000883009F494C0FF91EF91BF91AF919F919F
:100880008F917F916F915F914F913F912F910F9039
:100890000FBE0F901F901895883109F488C08032E0
:1008A00051F78093CE0114C0803409F49DC040F408
:1008B0008033B9F38833F9F68093CE0185ECB0C06C
:1008C000803509F485C0883509F496C0883499F6D6
:1008D0000E949303D0CF883909F48CC038F588374B
:1008E00029F050F4883611F0803729F683E08093A0
:1008F000D0011092A90157C0883809F47BC0803913
:1009000019F0803809F0B7CF8091A901803208F042
:1009100071C0E091A90181E08E0F8093A9018091BF
:10092000BB00F0E0E757FE4F80833DC0803B39F0CD
:10093000E0F4803A09F479C0883A09F09CCF84E069
:100940008093D0011092860110928501E09183017D
:10095000F091840109958091850181110FC081E09A
:10096000809385011092630109C0803C09F4A6CFF1
:10097000883C09F4A3CF883B09F07DCFE091860144
:1009800081E08E0F80938601F0E0ED59FE4F80816B
:100990008093BB00909186018091850129C0809150
:1009A000AB018093BB0085EC8093BC0064CF909139
:1009B000CD018091CC01981758F5E091CD0181E0EF
:1009C0008E0F8093CD01F0E0E455FE4F8081E9CF9A
:1009D000E091CD0181E08E0F8093CD018091BB002D
:1009E000F0E0E455FE4F80839091CD018091CC01E1
:1009F0009817C8F285E8D8CFE091CD0181E08E0F3D
:100A00008093CD018091BB00F0E0E455FE4F8083E0
:100A10008091CF0181115CCF81E08093AA0184EAAB
:100A20008093BC001092D00126CF85EC8093BC004F
:100A30001092D0018091A901803230F4E091A90197
:100A4000F0E0E757FE4F10826091A90170E0E0915D
:100A50008701F091880189E891E009951092A90138
:100A60000ACF1092CE0134CFE3E0F2E0138212827B
:100A700088EE93E0A0E0B0E084839583A683B783FB
:100A80008CE091E091838083EFE0F2E013821282A8
:100A90008EE191E091838083118687E2848380E1F7
:100AA000828784E0838714860895789484B5826071
:100AB00084BD84B5816084BD85B5826085BD85B502
:100AC000816085BD80916E00816080936E00109280
:100AD00081008091810082608093810080918100FB
:100AE000816080938100809180008160809380008C
:100AF0008091B10084608093B1008091B0008160EA
:100B00008093B00080917A00846080937A00809115
:100B10007A00826080937A0080917A00816080936D
:100B20007A0080917A00806880937A001092C100E8
:100B300010926101109260011092D7011092F90198
:100B40000E947A0189EB91E0909384018093830164
:100B50008AEB91E090938801809387010E947A014B
:100B60001092140280911A02823018F098E090934B
:100B700014028093170262E370E080E090E00E942C
:100B8000F30060911B028FE092E00E94410268EE48
:100B900073E080E090E00E94F30060E38FE092E079
:100BA0000E942B03CBE4D6E4CE010197F1F760E37A
:100BB0008FE092E00E942B032197F1F760E38FE032
:100BC00092E00E942B0383E592E00197F1F760E247
:100BD0008FE092E00E942B0360911402606240E07B
:100BE0008FE092E00E94440384E08093150240E08D
:100BF0006CE08FE092E00E94440340E061E08FE00F
:100C000092E00E9444038BE39FE10197F1F780910A
:100C10001802882319F080E00E945B0382E0809331
:100C2000160240E066E08FE092E00E94440340E05C
:100C300062E08FE092E00E9444038BE39FE1019722
:100C4000F1F788E080931B0260E08FE092E00E9461
:100C5000410280E00E945B034CE050E066E271E0FC
:100C60008FE092E00E94250183E00E945B034BE04D
:100C700050E063E371E08FE092E00E94250164E6BA
:100C800070E080E090E00E94F300F9CFEE0FFF1FCC
:0C0C90000590F491E02D0994F894FFCF3A
:100C9C000000400014005400000000001202E501A6
:100CAC002803BB01DE01CB01BC01000000008D0359
:100CBC0025012803520148656C6C6F2C204B756222
:100CCC0061210041726475696E6F204C43440000D1
:00000001FF
